{
  "contractName": "Marketplace",
  "abi": [
    {
      "anonymous": false,
      "inputs": [
        {
          "components": [
            {
              "internalType": "uint256",
              "name": "id",
              "type": "uint256"
            },
            {
              "internalType": "string",
              "name": "name",
              "type": "string"
            },
            {
              "internalType": "uint256",
              "name": "price",
              "type": "uint256"
            },
            {
              "internalType": "address payable",
              "name": "owner",
              "type": "address"
            },
            {
              "internalType": "bool",
              "name": "purchased",
              "type": "bool"
            }
          ],
          "indexed": false,
          "internalType": "struct Marketplace.Product",
          "name": "product",
          "type": "tuple"
        }
      ],
      "name": "ProductCreated",
      "type": "event"
    },
    {
      "anonymous": false,
      "inputs": [
        {
          "components": [
            {
              "internalType": "uint256",
              "name": "id",
              "type": "uint256"
            },
            {
              "internalType": "string",
              "name": "name",
              "type": "string"
            },
            {
              "internalType": "uint256",
              "name": "price",
              "type": "uint256"
            },
            {
              "internalType": "address payable",
              "name": "owner",
              "type": "address"
            },
            {
              "internalType": "bool",
              "name": "purchased",
              "type": "bool"
            }
          ],
          "indexed": false,
          "internalType": "struct Marketplace.Product",
          "name": "product",
          "type": "tuple"
        }
      ],
      "name": "ProductPurchased",
      "type": "event"
    },
    {
      "inputs": [],
      "name": "name",
      "outputs": [
        {
          "internalType": "string",
          "name": "",
          "type": "string"
        }
      ],
      "stateMutability": "view",
      "type": "function",
      "constant": true
    },
    {
      "inputs": [],
      "name": "productCount",
      "outputs": [
        {
          "internalType": "uint256",
          "name": "",
          "type": "uint256"
        }
      ],
      "stateMutability": "view",
      "type": "function",
      "constant": true
    },
    {
      "inputs": [
        {
          "internalType": "uint256",
          "name": "",
          "type": "uint256"
        }
      ],
      "name": "products",
      "outputs": [
        {
          "internalType": "uint256",
          "name": "id",
          "type": "uint256"
        },
        {
          "internalType": "string",
          "name": "name",
          "type": "string"
        },
        {
          "internalType": "uint256",
          "name": "price",
          "type": "uint256"
        },
        {
          "internalType": "address payable",
          "name": "owner",
          "type": "address"
        },
        {
          "internalType": "bool",
          "name": "purchased",
          "type": "bool"
        }
      ],
      "stateMutability": "view",
      "type": "function",
      "constant": true
    },
    {
      "inputs": [
        {
          "internalType": "string",
          "name": "_name",
          "type": "string"
        },
        {
          "internalType": "uint256",
          "name": "_price",
          "type": "uint256"
        }
      ],
      "name": "createProduct",
      "outputs": [],
      "stateMutability": "nonpayable",
      "type": "function"
    },
    {
      "inputs": [
        {
          "internalType": "uint256",
          "name": "_id",
          "type": "uint256"
        }
      ],
      "name": "purchaseProduct",
      "outputs": [],
      "stateMutability": "payable",
      "type": "function",
      "payable": true
    }
  ],
  "bytecode": "0x60806040526040518060400160405280600b81526020017f4d61726b6574706c61636500000000000000000000000000000000000000000081525060009080519060200190620000519291906200006b565b5060006001553480156200006457600080fd5b506200017f565b82805462000079906200014a565b90600052602060002090601f0160209004810192826200009d5760008555620000e9565b82601f10620000b857805160ff1916838001178555620000e9565b82800160010185558215620000e9579182015b82811115620000e8578251825591602001919060010190620000cb565b5b509050620000f89190620000fc565b5090565b5b8082111562000117576000816000905550600101620000fd565b5090565b7f4e487b7100000000000000000000000000000000000000000000000000000000600052602260045260246000fd5b600060028204905060018216806200016357607f821691505b6020821081036200017957620001786200011b565b5b50919050565b610d93806200018f6000396000f3fe60806040526004361061004a5760003560e01c806306fdde031461004f57806338e76a031461007a5780637acc0b2014610096578063e0f6ef87146100d7578063e9300c6c14610102575b600080fd5b34801561005b57600080fd5b5061006461012b565b6040516100719190610839565b60405180910390f35b610094600480360381019061008f91906108a5565b6101b9565b005b3480156100a257600080fd5b506100bd60048036038101906100b891906108a5565b6104a6565b6040516100ce95949392919061093d565b60405180910390f35b3480156100e357600080fd5b506100ec610591565b6040516100f99190610997565b60405180910390f35b34801561010e57600080fd5b5061012960048036038101906101249190610ae7565b610597565b005b6000805461013890610b72565b80601f016020809104026020016040519081016040528092919081815260200182805461016490610b72565b80156101b15780601f10610186576101008083540402835291602001916101b1565b820191906000526020600020905b81548152906001019060200180831161019457829003601f168201915b505050505081565b60008110156101c757600080fd5b60015481106101d557600080fd5b6000600260008381526020019081526020016000206040518060a00160405290816000820154815260200160018201805461020f90610b72565b80601f016020809104026020016040519081016040528092919081815260200182805461023b90610b72565b80156102885780601f1061025d57610100808354040283529160200191610288565b820191906000526020600020905b81548152906001019060200180831161026b57829003601f168201915b50505050508152602001600282015481526020016003820160009054906101000a900473ffffffffffffffffffffffffffffffffffffffff1673ffffffffffffffffffffffffffffffffffffffff1673ffffffffffffffffffffffffffffffffffffffff1681526020016003820160149054906101000a900460ff1615151515815250509050600033905081608001511561032257600080fd5b816060015173ffffffffffffffffffffffffffffffffffffffff168173ffffffffffffffffffffffffffffffffffffffff160361035e57600080fd5b816040015134101561036f57600080fd5b81604001513411156103d2578073ffffffffffffffffffffffffffffffffffffffff166108fc8360400151346103a59190610bd2565b9081150290604051600060405180830381858888f193505050501580156103d0573d6000803e3d6000fd5b505b816060015173ffffffffffffffffffffffffffffffffffffffff166108fc83604001519081150290604051600060405180830381858888f19350505050158015610420573d6000803e3d6000fd5b50600182608001901515908115158152505080826060019073ffffffffffffffffffffffffffffffffffffffff16908173ffffffffffffffffffffffffffffffffffffffff16815250507f8f3350ab76ef90c11dfc3bad43f3621f82d731661f9c33ac417f207fe8c33efd826040516104999190610cf3565b60405180910390a1505050565b60026020528060005260406000206000915090508060000154908060010180546104cf90610b72565b80601f01602080910402602001604051908101604052809291908181526020018280546104fb90610b72565b80156105485780601f1061051d57610100808354040283529160200191610548565b820191906000526020600020905b81548152906001019060200180831161052b57829003601f168201915b5050505050908060020154908060030160009054906101000a900473ffffffffffffffffffffffffffffffffffffffff16908060030160149054906101000a900460ff16905085565b60015481565b60008251116105a557600080fd5b600081116105b257600080fd5b60006040518060a0016040528060015481526020018481526020018381526020013373ffffffffffffffffffffffffffffffffffffffff168152602001600015158152509050806002600060015481526020019081526020016000206000820151816000015560208201518160010190805190602001906106349291906106fd565b506040820151816002015560608201518160030160006101000a81548173ffffffffffffffffffffffffffffffffffffffff021916908373ffffffffffffffffffffffffffffffffffffffff16021790555060808201518160030160146101000a81548160ff021916908315150217905550905050600160008154809291906106bc90610d15565b91905055507fc2a6fd362392f07d670594efdca576e9b657b7022b0ec9026bce550f8793ac59816040516106f09190610cf3565b60405180910390a1505050565b82805461070990610b72565b90600052602060002090601f01602090048101928261072b5760008555610772565b82601f1061074457805160ff1916838001178555610772565b82800160010185558215610772579182015b82811115610771578251825591602001919060010190610756565b5b50905061077f9190610783565b5090565b5b8082111561079c576000816000905550600101610784565b5090565b600081519050919050565b600082825260208201905092915050565b60005b838110156107da5780820151818401526020810190506107bf565b838111156107e9576000848401525b50505050565b6000601f19601f8301169050919050565b600061080b826107a0565b61081581856107ab565b93506108258185602086016107bc565b61082e816107ef565b840191505092915050565b600060208201905081810360008301526108538184610800565b905092915050565b6000604051905090565b600080fd5b600080fd5b6000819050919050565b6108828161086f565b811461088d57600080fd5b50565b60008135905061089f81610879565b92915050565b6000602082840312156108bb576108ba610865565b5b60006108c984828501610890565b91505092915050565b6108db8161086f565b82525050565b600073ffffffffffffffffffffffffffffffffffffffff82169050919050565b600061090c826108e1565b9050919050565b61091c81610901565b82525050565b60008115159050919050565b61093781610922565b82525050565b600060a08201905061095260008301886108d2565b81810360208301526109648187610800565b905061097360408301866108d2565b6109806060830185610913565b61098d608083018461092e565b9695505050505050565b60006020820190506109ac60008301846108d2565b92915050565b600080fd5b600080fd5b7f4e487b7100000000000000000000000000000000000000000000000000000000600052604160045260246000fd5b6109f4826107ef565b810181811067ffffffffffffffff82111715610a1357610a126109bc565b5b80604052505050565b6000610a2661085b565b9050610a3282826109eb565b919050565b600067ffffffffffffffff821115610a5257610a516109bc565b5b610a5b826107ef565b9050602081019050919050565b82818337600083830152505050565b6000610a8a610a8584610a37565b610a1c565b905082815260208101848484011115610aa657610aa56109b7565b5b610ab1848285610a68565b509392505050565b600082601f830112610ace57610acd6109b2565b5b8135610ade848260208601610a77565b91505092915050565b60008060408385031215610afe57610afd610865565b5b600083013567ffffffffffffffff811115610b1c57610b1b61086a565b5b610b2885828601610ab9565b9250506020610b3985828601610890565b9150509250929050565b7f4e487b7100000000000000000000000000000000000000000000000000000000600052602260045260246000fd5b60006002820490506001821680610b8a57607f821691505b602082108103610b9d57610b9c610b43565b5b50919050565b7f4e487b7100000000000000000000000000000000000000000000000000000000600052601160045260246000fd5b6000610bdd8261086f565b9150610be88361086f565b925082821015610bfb57610bfa610ba3565b5b828203905092915050565b610c0f8161086f565b82525050565b600082825260208201905092915050565b6000610c31826107a0565b610c3b8185610c15565b9350610c4b8185602086016107bc565b610c54816107ef565b840191505092915050565b610c6881610901565b82525050565b610c7781610922565b82525050565b600060a083016000830151610c956000860182610c06565b5060208301518482036020860152610cad8282610c26565b9150506040830151610cc26040860182610c06565b506060830151610cd56060860182610c5f565b506080830151610ce86080860182610c6e565b508091505092915050565b60006020820190508181036000830152610d0d8184610c7d565b905092915050565b6000610d208261086f565b91507fffffffffffffffffffffffffffffffffffffffffffffffffffffffffffffffff8203610d5257610d51610ba3565b5b60018201905091905056fea26469706673582212204166fbfc3018d829c9188674ac9d62511ab724f2295d7d5638155ff2781cd5ae64736f6c634300080e0033",
  "immutableReferences": {},
  "source": "pragma solidity ^0.8.0;\n\ncontract Marketplace {\n  string public name = \"Marketplace\";\n  uint public productCount = 0;\n  mapping(uint => Product) public products;\n\n  struct Product {\n    uint id;\n    string name;\n    uint price;\n    address payable owner;\n    bool purchased;\n  }\n\n  event ProductCreated(Product product);\n  event ProductPurchased(Product product);\n\n  function createProduct(string memory _name, uint _price) public {\n    require(bytes(_name).length > 0);\n    require(_price > 0);\n    Product memory product = Product(productCount, _name, _price, payable(msg.sender), false);\n    products[productCount] = product;\n    productCount++;\n    emit ProductCreated(product);\n  }\n\n  function purchaseProduct(uint _id) public payable {\n    require(_id >= 0);\n    require(_id < productCount);\n\n    Product memory _product = products[_id];\n    address payable _buyer = payable(msg.sender);\n\n    require(!_product.purchased);\n    require(_buyer != _product.owner);\n    require(msg.value >= _product.price);\n    if (msg.value > _product.price) {\n      _buyer.transfer(msg.value - _product.price);\n    }\n    _product.owner.transfer(_product.price);\n    _product.purchased = true;\n    _product.owner = _buyer;\n\n    emit ProductPurchased(_product);\n  }\n}\n",
  "sourcePath": "/home/dev/projects/marketplace/src/contracts/Marketplace.sol",
  "compiler": {
    "name": "solc",
    "version": "0.8.14+commit.80d49f37.Emscripten.clang"
  },
  "schemaVersion": "3.4.7",
  "updatedAt": "2022-06-09T10:45:31.452Z",
  "networkType": "ethereum",
  "devdoc": {
    "kind": "dev",
    "methods": {},
    "version": 1
  },
  "userdoc": {
    "kind": "user",
    "methods": {},
    "version": 1
  }
}